{
  "_format": "hh-sol-artifact-1",
  "contractName": "VenturaTokens",
  "sourceName": "contracts/VenturaTokens.sol",
  "abi": [
    {
      "inputs": [
        {
          "internalType": "address",
          "name": "_owner",
          "type": "address"
        }
      ],
      "stateMutability": "nonpayable",
      "type": "constructor"
    },
    {
      "inputs": [
        {
          "internalType": "address",
          "name": "sender",
          "type": "address"
        },
        {
          "internalType": "uint256",
          "name": "balance",
          "type": "uint256"
        },
        {
          "internalType": "uint256",
          "name": "needed",
          "type": "uint256"
        },
        {
          "internalType": "uint256",
          "name": "tokenId",
          "type": "uint256"
        }
      ],
      "name": "ERC1155InsufficientBalance",
      "type": "error"
    },
    {
      "inputs": [
        {
          "internalType": "address",
          "name": "approver",
          "type": "address"
        }
      ],
      "name": "ERC1155InvalidApprover",
      "type": "error"
    },
    {
      "inputs": [
        {
          "internalType": "uint256",
          "name": "idsLength",
          "type": "uint256"
        },
        {
          "internalType": "uint256",
          "name": "valuesLength",
          "type": "uint256"
        }
      ],
      "name": "ERC1155InvalidArrayLength",
      "type": "error"
    },
    {
      "inputs": [
        {
          "internalType": "address",
          "name": "operator",
          "type": "address"
        }
      ],
      "name": "ERC1155InvalidOperator",
      "type": "error"
    },
    {
      "inputs": [
        {
          "internalType": "address",
          "name": "receiver",
          "type": "address"
        }
      ],
      "name": "ERC1155InvalidReceiver",
      "type": "error"
    },
    {
      "inputs": [
        {
          "internalType": "address",
          "name": "sender",
          "type": "address"
        }
      ],
      "name": "ERC1155InvalidSender",
      "type": "error"
    },
    {
      "inputs": [
        {
          "internalType": "address",
          "name": "operator",
          "type": "address"
        },
        {
          "internalType": "address",
          "name": "owner",
          "type": "address"
        }
      ],
      "name": "ERC1155MissingApprovalForAll",
      "type": "error"
    },
    {
      "inputs": [
        {
          "internalType": "address",
          "name": "owner",
          "type": "address"
        }
      ],
      "name": "OwnableInvalidOwner",
      "type": "error"
    },
    {
      "inputs": [
        {
          "internalType": "address",
          "name": "account",
          "type": "address"
        }
      ],
      "name": "OwnableUnauthorizedAccount",
      "type": "error"
    },
    {
      "inputs": [],
      "name": "TOKEN_NOT_TRANSFERABLE",
      "type": "error"
    },
    {
      "anonymous": false,
      "inputs": [
        {
          "indexed": true,
          "internalType": "address",
          "name": "account",
          "type": "address"
        },
        {
          "indexed": true,
          "internalType": "address",
          "name": "operator",
          "type": "address"
        },
        {
          "indexed": false,
          "internalType": "bool",
          "name": "approved",
          "type": "bool"
        }
      ],
      "name": "ApprovalForAll",
      "type": "event"
    },
    {
      "anonymous": false,
      "inputs": [
        {
          "indexed": true,
          "internalType": "address",
          "name": "previousOwner",
          "type": "address"
        },
        {
          "indexed": true,
          "internalType": "address",
          "name": "newOwner",
          "type": "address"
        }
      ],
      "name": "OwnershipTransferred",
      "type": "event"
    },
    {
      "anonymous": false,
      "inputs": [
        {
          "indexed": true,
          "internalType": "address",
          "name": "operator",
          "type": "address"
        },
        {
          "indexed": true,
          "internalType": "address",
          "name": "from",
          "type": "address"
        },
        {
          "indexed": true,
          "internalType": "address",
          "name": "to",
          "type": "address"
        },
        {
          "indexed": false,
          "internalType": "uint256[]",
          "name": "ids",
          "type": "uint256[]"
        },
        {
          "indexed": false,
          "internalType": "uint256[]",
          "name": "values",
          "type": "uint256[]"
        }
      ],
      "name": "TransferBatch",
      "type": "event"
    },
    {
      "anonymous": false,
      "inputs": [
        {
          "indexed": true,
          "internalType": "address",
          "name": "operator",
          "type": "address"
        },
        {
          "indexed": true,
          "internalType": "address",
          "name": "from",
          "type": "address"
        },
        {
          "indexed": true,
          "internalType": "address",
          "name": "to",
          "type": "address"
        },
        {
          "indexed": false,
          "internalType": "uint256",
          "name": "id",
          "type": "uint256"
        },
        {
          "indexed": false,
          "internalType": "uint256",
          "name": "value",
          "type": "uint256"
        }
      ],
      "name": "TransferSingle",
      "type": "event"
    },
    {
      "anonymous": false,
      "inputs": [
        {
          "indexed": false,
          "internalType": "string",
          "name": "value",
          "type": "string"
        },
        {
          "indexed": true,
          "internalType": "uint256",
          "name": "id",
          "type": "uint256"
        }
      ],
      "name": "URI",
      "type": "event"
    },
    {
      "inputs": [],
      "name": "CREATOR_NFT_ID",
      "outputs": [
        {
          "internalType": "uint256",
          "name": "",
          "type": "uint256"
        }
      ],
      "stateMutability": "view",
      "type": "function"
    },
    {
      "inputs": [],
      "name": "POAT_NFT_ID",
      "outputs": [
        {
          "internalType": "uint256",
          "name": "",
          "type": "uint256"
        }
      ],
      "stateMutability": "view",
      "type": "function"
    },
    {
      "inputs": [],
      "name": "TOKEN_LIMIT",
      "outputs": [
        {
          "internalType": "uint8",
          "name": "",
          "type": "uint8"
        }
      ],
      "stateMutability": "view",
      "type": "function"
    },
    {
      "inputs": [],
      "name": "VENTURA",
      "outputs": [
        {
          "internalType": "uint256",
          "name": "",
          "type": "uint256"
        }
      ],
      "stateMutability": "view",
      "type": "function"
    },
    {
      "inputs": [
        {
          "internalType": "address",
          "name": "account",
          "type": "address"
        },
        {
          "internalType": "uint256",
          "name": "id",
          "type": "uint256"
        }
      ],
      "name": "balanceOf",
      "outputs": [
        {
          "internalType": "uint256",
          "name": "",
          "type": "uint256"
        }
      ],
      "stateMutability": "view",
      "type": "function"
    },
    {
      "inputs": [
        {
          "internalType": "address[]",
          "name": "accounts",
          "type": "address[]"
        },
        {
          "internalType": "uint256[]",
          "name": "ids",
          "type": "uint256[]"
        }
      ],
      "name": "balanceOfBatch",
      "outputs": [
        {
          "internalType": "uint256[]",
          "name": "",
          "type": "uint256[]"
        }
      ],
      "stateMutability": "view",
      "type": "function"
    },
    {
      "inputs": [],
      "name": "contractURI",
      "outputs": [
        {
          "internalType": "string",
          "name": "",
          "type": "string"
        }
      ],
      "stateMutability": "pure",
      "type": "function"
    },
    {
      "inputs": [],
      "name": "counter",
      "outputs": [
        {
          "internalType": "uint256",
          "name": "",
          "type": "uint256"
        }
      ],
      "stateMutability": "view",
      "type": "function"
    },
    {
      "inputs": [
        {
          "internalType": "address",
          "name": "account",
          "type": "address"
        },
        {
          "internalType": "address",
          "name": "operator",
          "type": "address"
        }
      ],
      "name": "isApprovedForAll",
      "outputs": [
        {
          "internalType": "bool",
          "name": "",
          "type": "bool"
        }
      ],
      "stateMutability": "view",
      "type": "function"
    },
    {
      "inputs": [
        {
          "internalType": "address",
          "name": "to",
          "type": "address"
        },
        {
          "internalType": "uint256",
          "name": "id",
          "type": "uint256"
        },
        {
          "internalType": "uint256",
          "name": "value",
          "type": "uint256"
        },
        {
          "internalType": "bytes",
          "name": "data",
          "type": "bytes"
        }
      ],
      "name": "mint",
      "outputs": [],
      "stateMutability": "nonpayable",
      "type": "function"
    },
    {
      "inputs": [
        {
          "internalType": "uint256",
          "name": "",
          "type": "uint256"
        }
      ],
      "name": "nft_metadata",
      "outputs": [
        {
          "internalType": "string",
          "name": "",
          "type": "string"
        }
      ],
      "stateMutability": "view",
      "type": "function"
    },
    {
      "inputs": [],
      "name": "owner",
      "outputs": [
        {
          "internalType": "address",
          "name": "",
          "type": "address"
        }
      ],
      "stateMutability": "view",
      "type": "function"
    },
    {
      "inputs": [],
      "name": "renounceOwnership",
      "outputs": [],
      "stateMutability": "nonpayable",
      "type": "function"
    },
    {
      "inputs": [
        {
          "internalType": "address",
          "name": "from",
          "type": "address"
        },
        {
          "internalType": "address",
          "name": "to",
          "type": "address"
        },
        {
          "internalType": "uint256[]",
          "name": "ids",
          "type": "uint256[]"
        },
        {
          "internalType": "uint256[]",
          "name": "values",
          "type": "uint256[]"
        },
        {
          "internalType": "bytes",
          "name": "data",
          "type": "bytes"
        }
      ],
      "name": "safeBatchTransferFrom",
      "outputs": [],
      "stateMutability": "nonpayable",
      "type": "function"
    },
    {
      "inputs": [
        {
          "internalType": "address",
          "name": "from",
          "type": "address"
        },
        {
          "internalType": "address",
          "name": "to",
          "type": "address"
        },
        {
          "internalType": "uint256",
          "name": "id",
          "type": "uint256"
        },
        {
          "internalType": "uint256",
          "name": "value",
          "type": "uint256"
        },
        {
          "internalType": "bytes",
          "name": "data",
          "type": "bytes"
        }
      ],
      "name": "safeTransferFrom",
      "outputs": [],
      "stateMutability": "nonpayable",
      "type": "function"
    },
    {
      "inputs": [
        {
          "internalType": "address",
          "name": "operator",
          "type": "address"
        },
        {
          "internalType": "bool",
          "name": "approved",
          "type": "bool"
        }
      ],
      "name": "setApprovalForAll",
      "outputs": [],
      "stateMutability": "nonpayable",
      "type": "function"
    },
    {
      "inputs": [
        {
          "internalType": "string",
          "name": "_uri",
          "type": "string"
        }
      ],
      "name": "setURI",
      "outputs": [],
      "stateMutability": "nonpayable",
      "type": "function"
    },
    {
      "inputs": [
        {
          "internalType": "bytes4",
          "name": "interfaceId",
          "type": "bytes4"
        }
      ],
      "name": "supportsInterface",
      "outputs": [
        {
          "internalType": "bool",
          "name": "",
          "type": "bool"
        }
      ],
      "stateMutability": "view",
      "type": "function"
    },
    {
      "inputs": [
        {
          "internalType": "uint256",
          "name": "",
          "type": "uint256"
        }
      ],
      "name": "tokenURI",
      "outputs": [
        {
          "internalType": "string",
          "name": "",
          "type": "string"
        }
      ],
      "stateMutability": "view",
      "type": "function"
    },
    {
      "inputs": [
        {
          "internalType": "address",
          "name": "newOwner",
          "type": "address"
        }
      ],
      "name": "transferOwnership",
      "outputs": [],
      "stateMutability": "nonpayable",
      "type": "function"
    },
    {
      "inputs": [
        {
          "internalType": "uint256",
          "name": "_id",
          "type": "uint256"
        }
      ],
      "name": "uri",
      "outputs": [
        {
          "internalType": "string",
          "name": "",
          "type": "string"
        }
      ],
      "stateMutability": "view",
      "type": "function"
    }
  ],
  "bytecode": "0x608060405260006004553480156200001657600080fd5b5060405162001da238038062001da28339810160408190526200003991620002e2565b60408051602081019091526000815281906200005581620000a2565b506001600160a01b0381166200008557604051631e4fbdf760e01b81526000600482015260240160405180910390fd5b6200009081620000b4565b506200009b62000106565b5062000485565b6002620000b08282620003b9565b5050565b600380546001600160a01b038381166001600160a01b0319831681179093556040519116919082907f8be0079c531659141344cd1fd0a4f28419497f9722a3daafe3b4186f6b6457e090600090a35050565b6005805460018101825560009182526040805160808101909152605080825260008051602062001c95833981519152909201929162001d52602083013962000150915082620003b9565b5060405180608001604052806050815260200162001d5260509139600160005260066020527f3e5fec24aa4dc4e5aee2e025e51e1392c72a2500577559fae9665c6d52bd6a3190620001a39082620003b9565b506005805460018101825560009182526040805160808101909152605080825260008051602062001c95833981519152909201929162001d026020830139620001ee915082620003b9565b5060405180608001604052806050815260200162001d0260509139600260005260066020527f8819ef417987f8ae7a81f42cdfb18815282fe989326fbff903d13cf0e03ace2990620002419082620003b9565b506005805460018101825560009182526040805160808101909152604d80825260008051602062001c95833981519152909201929162001cb560208301396200028c915082620003b9565b506040518060800160405280604d815260200162001cb5604d9139600360005260066020527f75f96ab15d697e93042dc45b5c896c4b27e89bb6eaf39475c5c371cb2513f7d290620002df9082620003b9565b50565b600060208284031215620002f557600080fd5b81516001600160a01b03811681146200030d57600080fd5b9392505050565b634e487b7160e01b600052604160045260246000fd5b600181811c908216806200033f57607f821691505b6020821081036200036057634e487b7160e01b600052602260045260246000fd5b50919050565b601f821115620003b457600081815260208120601f850160051c810160208610156200038f5750805b601f850160051c820191505b81811015620003b0578281556001016200039b565b5050505b505050565b81516001600160401b03811115620003d557620003d562000314565b620003ed81620003e684546200032a565b8462000366565b602080601f8311600181146200042557600084156200040c5750858301515b600019600386901b1c1916600185901b178555620003b0565b600085815260208120601f198616915b82811015620004565788860151825594840194600190910190840162000435565b5085821015620004755787850151600019600388901b60f8161c191681555b5050505050600190811b01905550565b61180080620004956000396000f3fe608060405234801561001057600080fd5b50600436106101765760003560e01c8063731133e9116100d8578063c87b56dd1161008c578063edb1b06911610066578063edb1b06914610307578063f242432a1461031a578063f2fde38b1461032d57600080fd5b8063c87b56dd146102b0578063e8a3d485146102c3578063e985e9c5146102cb57600080fd5b80637f1cc989116100bd5780637f1cc9891461027a5780638da5cb5b14610282578063a22cb4651461029d57600080fd5b8063731133e91461025f5780637d41aa8e1461027257600080fd5b80632eb2c2d61161012f578063594bb50011610114578063594bb5001461024657806361bc221a1461024e578063715018a61461025757600080fd5b80632eb2c2d6146102135780634e1273f41461022657600080fd5b806302fe53051161016057806302fe5305146101c4578063031bd4c4146101d95780630e89341c146101f357600080fd5b8062fdd58e1461017b57806301ffc9a7146101a1575b600080fd5b61018e610189366004610f74565b610340565b6040519081526020015b60405180910390f35b6101b46101af366004610fb4565b610368565b6040519015158152602001610198565b6101d76101d2366004611077565b610403565b005b6101e1600181565b60405160ff9091168152602001610198565b6102066102013660046110c8565b610417565b6040516101989190611127565b6101d76102213660046111e9565b6104b9565b610239610234366004611293565b6104d5565b604051610198919061138e565b61018e600081565b61018e60045481565b6101d76105af565b6101d761026d3660046113a1565b6105c3565b61018e600281565b61018e600181565b6003546040516001600160a01b039091168152602001610198565b6101d76102ab366004611402565b6105d5565b6102066102be3660046110c8565b6105e4565b61020661067e565b6101b46102d936600461143e565b6001600160a01b03918216600090815260016020908152604080832093909416825291909152205460ff1690565b6102066103153660046110c8565b61069e565b6101d7610328366004611471565b6106c9565b6101d761033b3660046114d6565b6106de565b6000818152602081815260408083206001600160a01b03861684529091529020545b92915050565b60006001600160e01b031982167fd9b67a260000000000000000000000000000000000000000000000000000000014806103cb57506001600160e01b031982167f0e89341c00000000000000000000000000000000000000000000000000000000145b8061036257507f01ffc9a7000000000000000000000000000000000000000000000000000000006001600160e01b0319831614610362565b61040b610732565b61041481610778565b50565b6000818152600660205260409020805460609190610434906114f1565b80601f0160208091040260200160405190810160405280929190818152602001828054610460906114f1565b80156104ad5780601f10610482576101008083540402835291602001916104ad565b820191906000526020600020905b81548152906001019060200180831161049057829003601f168201915b50505050509050919050565b6104c1610823565b6104ce8585858585610855565b5050505050565b6060815183511461050b5781518351604051635b05999160e01b8152600481019290925260248201526044015b60405180910390fd5b6000835167ffffffffffffffff81111561052757610527610fd8565b604051908082528060200260200182016040528015610550578160200160208202803683370190505b50905060005b84518110156105a75760208082028601015161057a90602080840287010151610340565b82828151811061058c5761058c61152b565b60209081029190910101526105a081611557565b9050610556565b509392505050565b6105b7610732565b6105c160006108b5565b565b6105cf8484848461091f565b50505050565b6105e0338383610984565b5050565b600660205260009081526040902080546105fd906114f1565b80601f0160208091040260200160405190810160405280929190818152602001828054610629906114f1565b80156106765780601f1061064b57610100808354040283529160200191610676565b820191906000526020600020905b81548152906001019060200180831161065957829003601f168201915b505050505081565b606060405180608001604052806050815260200161177b60509139905090565b600581815481106106ae57600080fd5b9060005260206000200160009150905080546105fd906114f1565b6106d1610823565b6104ce8585858585610a34565b6106e6610732565b6001600160a01b038116610729576040517f1e4fbdf700000000000000000000000000000000000000000000000000000000815260006004820152602401610502565b610414816108b5565b6003546001600160a01b031633146105c1576040517f118cdaa7000000000000000000000000000000000000000000000000000000008152336004820152602401610502565b600061078360055490565b61078e906001611570565b60008181526006602052604090209091506107a983826115ce565b50600580546001810182556000919091527f036b6384b5eca791c62761152d0c79bb0604c104a5fb6f4eb0703f3154bb3db0016107e683826115ce565b50807f6bb7ff708619ba0610cba295a58592e0451dee2622938c8755667688daf3529b836040516108179190611127565b60405180910390a25050565b6040517f1de8803000000000000000000000000000000000000000000000000000000000815260040160405180910390fd5b6001600160a01b03841661087f57604051632bfa23e760e11b815260006004820152602401610502565b6001600160a01b0385166108a857604051626a0d4560e21b815260006004820152602401610502565b6104ce8585858585610ac2565b600380546001600160a01b038381167fffffffffffffffffffffffff0000000000000000000000000000000000000000831681179093556040519116919082907f8be0079c531659141344cd1fd0a4f28419497f9722a3daafe3b4186f6b6457e090600090a35050565b6001600160a01b03841661094957604051632bfa23e760e11b815260006004820152602401610502565b6040805160018082526020820186905281830190815260608201859052608082019092529061097c600087848487610ac2565b505050505050565b6001600160a01b0382166109c7576040517fced3e10000000000000000000000000000000000000000000000000000000000815260006004820152602401610502565b6001600160a01b03838116600081815260016020908152604080832094871680845294825291829020805460ff191686151590811790915591519182527f17307eab39ab6107e8899845ad3d59bd9653f200f220920489ca2b5937696c31910160405180910390a3505050565b6001600160a01b038416610a5e57604051632bfa23e760e11b815260006004820152602401610502565b6001600160a01b038516610a8757604051626a0d4560e21b815260006004820152602401610502565b60408051600180825260208201869052818301908152606082018590526080820190925290610ab98787848487610ac2565b50505050505050565b610ace85858585610b15565b6001600160a01b038416156104ce5782513390600103610b075760208481015190840151610b00838989858589610d4b565b505061097c565b61097c818787878787610e6f565b8051825114610b445781518151604051635b05999160e01b815260048101929092526024820152604401610502565b3360005b8351811015610c6c576020818102858101820151908501909101516001600160a01b03881615610c14576000828152602081815260408083206001600160a01b038c16845290915290205481811015610bed576040517f03dee4c50000000000000000000000000000000000000000000000000000000081526001600160a01b038a166004820152602481018290526044810183905260648101849052608401610502565b6000838152602081815260408083206001600160a01b038d16845290915290209082900390555b6001600160a01b03871615610c59576000828152602081815260408083206001600160a01b038b16845290915281208054839290610c53908490611570565b90915550505b505080610c6590611557565b9050610b48565b508251600103610ced5760208301516000906020840151909150856001600160a01b0316876001600160a01b0316846001600160a01b03167fc3d58168c5ae7397731d063d5bbf3d657854427343f4c083240f7aacaa2d0f628585604051610cde929190918252602082015260400190565b60405180910390a450506104ce565b836001600160a01b0316856001600160a01b0316826001600160a01b03167f4a39dc06d4c0dbc64b70af90fd698a233a518aa5d07e595d983b8c0526c8f7fb8686604051610d3c92919061168e565b60405180910390a45050505050565b6001600160a01b0384163b1561097c5760405163f23a6e6160e01b81526001600160a01b0385169063f23a6e6190610d8f90899089908890889088906004016116bc565b6020604051808303816000875af1925050508015610dca575060408051601f3d908101601f19168201909252610dc7918101906116ff565b60015b610e33573d808015610df8576040519150601f19603f3d011682016040523d82523d6000602084013e610dfd565b606091505b508051600003610e2b57604051632bfa23e760e11b81526001600160a01b0386166004820152602401610502565b805181602001fd5b6001600160e01b0319811663f23a6e6160e01b14610ab957604051632bfa23e760e11b81526001600160a01b0386166004820152602401610502565b6001600160a01b0384163b1561097c5760405163bc197c8160e01b81526001600160a01b0385169063bc197c8190610eb3908990899088908890889060040161171c565b6020604051808303816000875af1925050508015610eee575060408051601f3d908101601f19168201909252610eeb918101906116ff565b60015b610f1c573d808015610df8576040519150601f19603f3d011682016040523d82523d6000602084013e610dfd565b6001600160e01b0319811663bc197c8160e01b14610ab957604051632bfa23e760e11b81526001600160a01b0386166004820152602401610502565b80356001600160a01b0381168114610f6f57600080fd5b919050565b60008060408385031215610f8757600080fd5b610f9083610f58565b946020939093013593505050565b6001600160e01b03198116811461041457600080fd5b600060208284031215610fc657600080fd5b8135610fd181610f9e565b9392505050565b634e487b7160e01b600052604160045260246000fd5b604051601f8201601f1916810167ffffffffffffffff8111828210171561101757611017610fd8565b604052919050565b600067ffffffffffffffff83111561103957611039610fd8565b61104c601f8401601f1916602001610fee565b905082815283838301111561106057600080fd5b828260208301376000602084830101529392505050565b60006020828403121561108957600080fd5b813567ffffffffffffffff8111156110a057600080fd5b8201601f810184136110b157600080fd5b6110c08482356020840161101f565b949350505050565b6000602082840312156110da57600080fd5b5035919050565b6000815180845260005b81811015611107576020818501810151868301820152016110eb565b506000602082860101526020601f19601f83011685010191505092915050565b602081526000610fd160208301846110e1565b600067ffffffffffffffff82111561115457611154610fd8565b5060051b60200190565b600082601f83011261116f57600080fd5b8135602061118461117f8361113a565b610fee565b82815260059290921b840181019181810190868411156111a357600080fd5b8286015b848110156111be57803583529183019183016111a7565b509695505050505050565b600082601f8301126111da57600080fd5b610fd18383356020850161101f565b600080600080600060a0868803121561120157600080fd5b61120a86610f58565b945061121860208701610f58565b9350604086013567ffffffffffffffff8082111561123557600080fd5b61124189838a0161115e565b9450606088013591508082111561125757600080fd5b61126389838a0161115e565b9350608088013591508082111561127957600080fd5b50611286888289016111c9565b9150509295509295909350565b600080604083850312156112a657600080fd5b823567ffffffffffffffff808211156112be57600080fd5b818501915085601f8301126112d257600080fd5b813560206112e261117f8361113a565b82815260059290921b8401810191818101908984111561130157600080fd5b948201945b838610156113265761131786610f58565b82529482019490820190611306565b9650508601359250508082111561133c57600080fd5b506113498582860161115e565b9150509250929050565b600081518084526020808501945080840160005b8381101561138357815187529582019590820190600101611367565b509495945050505050565b602081526000610fd16020830184611353565b600080600080608085870312156113b757600080fd5b6113c085610f58565b93506020850135925060408501359150606085013567ffffffffffffffff8111156113ea57600080fd5b6113f6878288016111c9565b91505092959194509250565b6000806040838503121561141557600080fd5b61141e83610f58565b91506020830135801515811461143357600080fd5b809150509250929050565b6000806040838503121561145157600080fd5b61145a83610f58565b915061146860208401610f58565b90509250929050565b600080600080600060a0868803121561148957600080fd5b61149286610f58565b94506114a060208701610f58565b93506040860135925060608601359150608086013567ffffffffffffffff8111156114ca57600080fd5b611286888289016111c9565b6000602082840312156114e857600080fd5b610fd182610f58565b600181811c9082168061150557607f821691505b60208210810361152557634e487b7160e01b600052602260045260246000fd5b50919050565b634e487b7160e01b600052603260045260246000fd5b634e487b7160e01b600052601160045260246000fd5b60006001820161156957611569611541565b5060010190565b8082018082111561036257610362611541565b601f8211156115c957600081815260208120601f850160051c810160208610156115aa5750805b601f850160051c820191505b8181101561097c578281556001016115b6565b505050565b815167ffffffffffffffff8111156115e8576115e8610fd8565b6115fc816115f684546114f1565b84611583565b602080601f83116001811461163157600084156116195750858301515b600019600386901b1c1916600185901b17855561097c565b600085815260208120601f198616915b8281101561166057888601518255948401946001909101908401611641565b508582101561167e5787850151600019600388901b60f8161c191681555b5050505050600190811b01905550565b6040815260006116a16040830185611353565b82810360208401526116b38185611353565b95945050505050565b60006001600160a01b03808816835280871660208401525084604083015283606083015260a060808301526116f460a08301846110e1565b979650505050505050565b60006020828403121561171157600080fd5b8151610fd181610f9e565b60006001600160a01b03808816835280871660208401525060a0604083015261174860a0830186611353565b828103606084015261175a8186611353565b9050828103608084015261176e81856110e1565b9897505050505050505056fe68747470733a2f2f697066732e696f2f697066732f516d6654686d6d6e746734644b53613845486d62525157556b743336667a434b3534455633426554344b733768452f76656e747572612e6a736f6ea2646970667358221220a0341c65faa14c29fa8a7056f5a038de18bf1431868396bc03d2b669aa9888c064736f6c63430008140033036b6384b5eca791c62761152d0c79bb0604c104a5fb6f4eb0703f3154bb3db068747470733a2f2f697066732e696f2f697066732f516d6654686d6d6e746734644b53613845486d62525157556b743336667a434b3534455633426554344b733768452f706f61702e6a736f6e68747470733a2f2f697066732e696f2f697066732f516d6654686d6d6e746734644b53613845486d62525157556b743336667a434b3534455633426554344b733768452f63726561746f722e6a736f6e68747470733a2f2f697066732e696f2f697066732f516d6654686d6d6e746734644b53613845486d62525157556b743336667a434b3534455633426554344b733768452f76656e747572612e6a736f6e",
  "linkReferences": {},
  "deployedLinkReferences": {}
}