{
  "_format": "hh-sol-artifact-1",
  "contractName": "Ventura",
  "sourceName": "contracts/Ventura.sol",
  "abi": [
    {
      "inputs": [
        {
          "internalType": "address",
          "name": "_owner",
          "type": "address"
        },
        {
          "internalType": "address",
          "name": "_paymentToken",
          "type": "address"
        },
        {
          "internalType": "address",
          "name": "nftAddress",
          "type": "address"
        }
      ],
      "stateMutability": "nonpayable",
      "type": "constructor"
    },
    {
      "inputs": [],
      "name": "ADDRESS_ZERO_NOT_ALLOWED",
      "type": "error"
    },
    {
      "inputs": [],
      "name": "CAN_NOT_REGISTER_FOR_YOUR_OWN_EVENT",
      "type": "error"
    },
    {
      "inputs": [
        {
          "internalType": "bytes32",
          "name": "",
          "type": "bytes32"
        }
      ],
      "name": "EVENT_NOT_FOUND",
      "type": "error"
    },
    {
      "inputs": [],
      "name": "EVENT_STILL_ON",
      "type": "error"
    },
    {
      "inputs": [
        {
          "internalType": "uint256",
          "name": "",
          "type": "uint256"
        }
      ],
      "name": "INSUFFICIENT_VALUE",
      "type": "error"
    },
    {
      "inputs": [
        {
          "internalType": "address",
          "name": "",
          "type": "address"
        }
      ],
      "name": "IS_A_PARTICIPANT",
      "type": "error"
    },
    {
      "inputs": [],
      "name": "N0_EVENT",
      "type": "error"
    },
    {
      "inputs": [],
      "name": "NOT_REGISTERED",
      "type": "error"
    },
    {
      "inputs": [
        {
          "internalType": "address",
          "name": "owner",
          "type": "address"
        }
      ],
      "name": "OwnableInvalidOwner",
      "type": "error"
    },
    {
      "inputs": [
        {
          "internalType": "address",
          "name": "account",
          "type": "address"
        }
      ],
      "name": "OwnableUnauthorizedAccount",
      "type": "error"
    },
    {
      "inputs": [],
      "name": "REGISTRATION_NOT_ON",
      "type": "error"
    },
    {
      "inputs": [],
      "name": "REG_IS_OVER",
      "type": "error"
    },
    {
      "inputs": [],
      "name": "TOO_LATE_TO_CANCEL_EVENT",
      "type": "error"
    },
    {
      "inputs": [],
      "name": "UNAUTHORIZED",
      "type": "error"
    },
    {
      "anonymous": false,
      "inputs": [
        {
          "indexed": true,
          "internalType": "address",
          "name": "scanner",
          "type": "address"
        },
        {
          "indexed": true,
          "internalType": "address",
          "name": "participant",
          "type": "address"
        },
        {
          "indexed": true,
          "internalType": "bytes32",
          "name": "eventId",
          "type": "bytes32"
        }
      ],
      "name": "BarcodeScanned",
      "type": "event"
    },
    {
      "anonymous": false,
      "inputs": [
        {
          "indexed": true,
          "internalType": "bytes32",
          "name": "_eventId",
          "type": "bytes32"
        }
      ],
      "name": "EventCancelled",
      "type": "event"
    },
    {
      "anonymous": false,
      "inputs": [
        {
          "indexed": true,
          "internalType": "address",
          "name": "creator",
          "type": "address"
        },
        {
          "indexed": true,
          "internalType": "bytes32",
          "name": "eventId",
          "type": "bytes32"
        },
        {
          "indexed": true,
          "internalType": "enum IVentura.EventType",
          "name": "EventType",
          "type": "uint8"
        },
        {
          "indexed": false,
          "internalType": "string",
          "name": "eventTitle",
          "type": "string"
        }
      ],
      "name": "EventCreated",
      "type": "event"
    },
    {
      "anonymous": false,
      "inputs": [
        {
          "indexed": true,
          "internalType": "address",
          "name": "previousOwner",
          "type": "address"
        },
        {
          "indexed": true,
          "internalType": "address",
          "name": "newOwner",
          "type": "address"
        }
      ],
      "name": "OwnershipTransferred",
      "type": "event"
    },
    {
      "anonymous": false,
      "inputs": [
        {
          "indexed": true,
          "internalType": "bytes32",
          "name": "eventId",
          "type": "bytes32"
        },
        {
          "indexed": false,
          "internalType": "string",
          "name": "message",
          "type": "string"
        }
      ],
      "name": "RegInfo",
      "type": "event"
    },
    {
      "anonymous": false,
      "inputs": [
        {
          "indexed": true,
          "internalType": "address",
          "name": "participant",
          "type": "address"
        },
        {
          "indexed": true,
          "internalType": "bytes32",
          "name": "eventId",
          "type": "bytes32"
        },
        {
          "indexed": true,
          "internalType": "uint256",
          "name": "price",
          "type": "uint256"
        }
      ],
      "name": "Registered",
      "type": "event"
    },
    {
      "inputs": [
        {
          "internalType": "bytes32",
          "name": "_eventId",
          "type": "bytes32"
        }
      ],
      "name": "cancelEvent",
      "outputs": [],
      "stateMutability": "nonpayable",
      "type": "function"
    },
    {
      "inputs": [
        {
          "components": [
            {
              "internalType": "string",
              "name": "eventTitle",
              "type": "string"
            },
            {
              "internalType": "string",
              "name": "imageUrl",
              "type": "string"
            },
            {
              "internalType": "string",
              "name": "description",
              "type": "string"
            },
            {
              "internalType": "uint256",
              "name": "price",
              "type": "uint256"
            },
            {
              "internalType": "string",
              "name": "venue",
              "type": "string"
            },
            {
              "internalType": "uint256[]",
              "name": "eventDate",
              "type": "uint256[]"
            },
            {
              "internalType": "string",
              "name": "startTime",
              "type": "string"
            },
            {
              "internalType": "string",
              "name": "endTime",
              "type": "string"
            }
          ],
          "internalType": "struct IVentura.EventData",
          "name": "_eventData",
          "type": "tuple"
        }
      ],
      "name": "createEvent",
      "outputs": [
        {
          "internalType": "bool",
          "name": "_success",
          "type": "bool"
        }
      ],
      "stateMutability": "nonpayable",
      "type": "function"
    },
    {
      "inputs": [
        {
          "internalType": "bytes32",
          "name": "_eventId",
          "type": "bytes32"
        }
      ],
      "name": "eventIsOver",
      "outputs": [],
      "stateMutability": "nonpayable",
      "type": "function"
    },
    {
      "inputs": [
        {
          "internalType": "uint256",
          "name": "",
          "type": "uint256"
        }
      ],
      "name": "events",
      "outputs": [
        {
          "internalType": "address",
          "name": "creator",
          "type": "address"
        },
        {
          "internalType": "bytes32",
          "name": "eventId",
          "type": "bytes32"
        },
        {
          "internalType": "string",
          "name": "imageUrl",
          "type": "string"
        },
        {
          "internalType": "string",
          "name": "eventTitle",
          "type": "string"
        },
        {
          "internalType": "string",
          "name": "description",
          "type": "string"
        },
        {
          "internalType": "string",
          "name": "venue",
          "type": "string"
        },
        {
          "internalType": "uint256",
          "name": "price",
          "type": "uint256"
        },
        {
          "components": [
            {
              "internalType": "string",
              "name": "startTime",
              "type": "string"
            },
            {
              "internalType": "string",
              "name": "endTime",
              "type": "string"
            }
          ],
          "internalType": "struct IVentura.Timing",
          "name": "timing",
          "type": "tuple"
        },
        {
          "internalType": "enum IVentura.EventType",
          "name": "eventType",
          "type": "uint8"
        },
        {
          "internalType": "uint256",
          "name": "createdAt",
          "type": "uint256"
        },
        {
          "components": [
            {
              "internalType": "bool",
              "name": "regIsOn",
              "type": "bool"
            },
            {
              "internalType": "bool",
              "name": "isOver",
              "type": "bool"
            },
            {
              "internalType": "bool",
              "name": "cancelled",
              "type": "bool"
            }
          ],
          "internalType": "struct IVentura.BoolCheck",
          "name": "boolCheck",
          "type": "tuple"
        }
      ],
      "stateMutability": "view",
      "type": "function"
    },
    {
      "inputs": [
        {
          "internalType": "bytes32",
          "name": "",
          "type": "bytes32"
        }
      ],
      "name": "eventsCreated",
      "outputs": [
        {
          "internalType": "address",
          "name": "creator",
          "type": "address"
        },
        {
          "internalType": "bytes32",
          "name": "eventId",
          "type": "bytes32"
        },
        {
          "internalType": "string",
          "name": "imageUrl",
          "type": "string"
        },
        {
          "internalType": "string",
          "name": "eventTitle",
          "type": "string"
        },
        {
          "internalType": "string",
          "name": "description",
          "type": "string"
        },
        {
          "internalType": "string",
          "name": "venue",
          "type": "string"
        },
        {
          "internalType": "uint256",
          "name": "price",
          "type": "uint256"
        },
        {
          "components": [
            {
              "internalType": "string",
              "name": "startTime",
              "type": "string"
            },
            {
              "internalType": "string",
              "name": "endTime",
              "type": "string"
            }
          ],
          "internalType": "struct IVentura.Timing",
          "name": "timing",
          "type": "tuple"
        },
        {
          "internalType": "enum IVentura.EventType",
          "name": "eventType",
          "type": "uint8"
        },
        {
          "internalType": "uint256",
          "name": "createdAt",
          "type": "uint256"
        },
        {
          "components": [
            {
              "internalType": "bool",
              "name": "regIsOn",
              "type": "bool"
            },
            {
              "internalType": "bool",
              "name": "isOver",
              "type": "bool"
            },
            {
              "internalType": "bool",
              "name": "cancelled",
              "type": "bool"
            }
          ],
          "internalType": "struct IVentura.BoolCheck",
          "name": "boolCheck",
          "type": "tuple"
        }
      ],
      "stateMutability": "view",
      "type": "function"
    },
    {
      "inputs": [],
      "name": "getAllEvents",
      "outputs": [
        {
          "components": [
            {
              "internalType": "address",
              "name": "creator",
              "type": "address"
            },
            {
              "internalType": "bytes32",
              "name": "eventId",
              "type": "bytes32"
            },
            {
              "internalType": "string",
              "name": "imageUrl",
              "type": "string"
            },
            {
              "internalType": "string",
              "name": "eventTitle",
              "type": "string"
            },
            {
              "internalType": "string",
              "name": "description",
              "type": "string"
            },
            {
              "internalType": "string",
              "name": "venue",
              "type": "string"
            },
            {
              "internalType": "uint256",
              "name": "price",
              "type": "uint256"
            },
            {
              "internalType": "address[]",
              "name": "participants",
              "type": "address[]"
            },
            {
              "internalType": "uint256[]",
              "name": "eventDate",
              "type": "uint256[]"
            },
            {
              "components": [
                {
                  "internalType": "string",
                  "name": "startTime",
                  "type": "string"
                },
                {
                  "internalType": "string",
                  "name": "endTime",
                  "type": "string"
                }
              ],
              "internalType": "struct IVentura.Timing",
              "name": "timing",
              "type": "tuple"
            },
            {
              "internalType": "enum IVentura.EventType",
              "name": "eventType",
              "type": "uint8"
            },
            {
              "internalType": "uint256",
              "name": "createdAt",
              "type": "uint256"
            },
            {
              "components": [
                {
                  "internalType": "bool",
                  "name": "regIsOn",
                  "type": "bool"
                },
                {
                  "internalType": "bool",
                  "name": "isOver",
                  "type": "bool"
                },
                {
                  "internalType": "bool",
                  "name": "cancelled",
                  "type": "bool"
                }
              ],
              "internalType": "struct IVentura.BoolCheck",
              "name": "boolCheck",
              "type": "tuple"
            }
          ],
          "internalType": "struct IVentura.Event[]",
          "name": "",
          "type": "tuple[]"
        }
      ],
      "stateMutability": "view",
      "type": "function"
    },
    {
      "inputs": [
        {
          "internalType": "address",
          "name": "_creator",
          "type": "address"
        }
      ],
      "name": "getEeventsByCreator",
      "outputs": [
        {
          "components": [
            {
              "internalType": "address",
              "name": "creator",
              "type": "address"
            },
            {
              "internalType": "bytes32",
              "name": "eventId",
              "type": "bytes32"
            },
            {
              "internalType": "string",
              "name": "imageUrl",
              "type": "string"
            },
            {
              "internalType": "string",
              "name": "eventTitle",
              "type": "string"
            },
            {
              "internalType": "string",
              "name": "description",
              "type": "string"
            },
            {
              "internalType": "string",
              "name": "venue",
              "type": "string"
            },
            {
              "internalType": "uint256",
              "name": "price",
              "type": "uint256"
            },
            {
              "internalType": "address[]",
              "name": "participants",
              "type": "address[]"
            },
            {
              "internalType": "uint256[]",
              "name": "eventDate",
              "type": "uint256[]"
            },
            {
              "components": [
                {
                  "internalType": "string",
                  "name": "startTime",
                  "type": "string"
                },
                {
                  "internalType": "string",
                  "name": "endTime",
                  "type": "string"
                }
              ],
              "internalType": "struct IVentura.Timing",
              "name": "timing",
              "type": "tuple"
            },
            {
              "internalType": "enum IVentura.EventType",
              "name": "eventType",
              "type": "uint8"
            },
            {
              "internalType": "uint256",
              "name": "createdAt",
              "type": "uint256"
            },
            {
              "components": [
                {
                  "internalType": "bool",
                  "name": "regIsOn",
                  "type": "bool"
                },
                {
                  "internalType": "bool",
                  "name": "isOver",
                  "type": "bool"
                },
                {
                  "internalType": "bool",
                  "name": "cancelled",
                  "type": "bool"
                }
              ],
              "internalType": "struct IVentura.BoolCheck",
              "name": "boolCheck",
              "type": "tuple"
            }
          ],
          "internalType": "struct IVentura.Event[]",
          "name": "_allEvents",
          "type": "tuple[]"
        }
      ],
      "stateMutability": "nonpayable",
      "type": "function"
    },
    {
      "inputs": [
        {
          "internalType": "bytes32",
          "name": "_eventId",
          "type": "bytes32"
        }
      ],
      "name": "getEventById",
      "outputs": [
        {
          "components": [
            {
              "internalType": "address",
              "name": "creator",
              "type": "address"
            },
            {
              "internalType": "bytes32",
              "name": "eventId",
              "type": "bytes32"
            },
            {
              "internalType": "string",
              "name": "imageUrl",
              "type": "string"
            },
            {
              "internalType": "string",
              "name": "eventTitle",
              "type": "string"
            },
            {
              "internalType": "string",
              "name": "description",
              "type": "string"
            },
            {
              "internalType": "string",
              "name": "venue",
              "type": "string"
            },
            {
              "internalType": "uint256",
              "name": "price",
              "type": "uint256"
            },
            {
              "internalType": "address[]",
              "name": "participants",
              "type": "address[]"
            },
            {
              "internalType": "uint256[]",
              "name": "eventDate",
              "type": "uint256[]"
            },
            {
              "components": [
                {
                  "internalType": "string",
                  "name": "startTime",
                  "type": "string"
                },
                {
                  "internalType": "string",
                  "name": "endTime",
                  "type": "string"
                }
              ],
              "internalType": "struct IVentura.Timing",
              "name": "timing",
              "type": "tuple"
            },
            {
              "internalType": "enum IVentura.EventType",
              "name": "eventType",
              "type": "uint8"
            },
            {
              "internalType": "uint256",
              "name": "createdAt",
              "type": "uint256"
            },
            {
              "components": [
                {
                  "internalType": "bool",
                  "name": "regIsOn",
                  "type": "bool"
                },
                {
                  "internalType": "bool",
                  "name": "isOver",
                  "type": "bool"
                },
                {
                  "internalType": "bool",
                  "name": "cancelled",
                  "type": "bool"
                }
              ],
              "internalType": "struct IVentura.BoolCheck",
              "name": "boolCheck",
              "type": "tuple"
            }
          ],
          "internalType": "struct IVentura.Event",
          "name": "",
          "type": "tuple"
        }
      ],
      "stateMutability": "view",
      "type": "function"
    },
    {
      "inputs": [
        {
          "internalType": "address",
          "name": "_participant",
          "type": "address"
        },
        {
          "internalType": "bytes32",
          "name": "_eventId",
          "type": "bytes32"
        }
      ],
      "name": "markAttendnceWithBarcode",
      "outputs": [],
      "stateMutability": "nonpayable",
      "type": "function"
    },
    {
      "inputs": [
        {
          "internalType": "bytes32",
          "name": "_eventId",
          "type": "bytes32"
        }
      ],
      "name": "mintCreatorNFT",
      "outputs": [],
      "stateMutability": "nonpayable",
      "type": "function"
    },
    {
      "inputs": [
        {
          "internalType": "bytes32",
          "name": "_eventId",
          "type": "bytes32"
        }
      ],
      "name": "mintParticipantsNFT",
      "outputs": [],
      "stateMutability": "nonpayable",
      "type": "function"
    },
    {
      "inputs": [],
      "name": "owner",
      "outputs": [
        {
          "internalType": "address",
          "name": "",
          "type": "address"
        }
      ],
      "stateMutability": "view",
      "type": "function"
    },
    {
      "inputs": [
        {
          "internalType": "bytes32",
          "name": "_eventId",
          "type": "bytes32"
        }
      ],
      "name": "registerForEvent",
      "outputs": [],
      "stateMutability": "nonpayable",
      "type": "function"
    },
    {
      "inputs": [
        {
          "internalType": "bytes32",
          "name": "_eventId",
          "type": "bytes32"
        }
      ],
      "name": "registrationOn",
      "outputs": [
        {
          "internalType": "bool",
          "name": "",
          "type": "bool"
        }
      ],
      "stateMutability": "nonpayable",
      "type": "function"
    },
    {
      "inputs": [
        {
          "internalType": "bytes32",
          "name": "_eventId",
          "type": "bytes32"
        }
      ],
      "name": "registrationOver",
      "outputs": [
        {
          "internalType": "bool",
          "name": "",
          "type": "bool"
        }
      ],
      "stateMutability": "nonpayable",
      "type": "function"
    },
    {
      "inputs": [],
      "name": "renounceOwnership",
      "outputs": [],
      "stateMutability": "nonpayable",
      "type": "function"
    },
    {
      "inputs": [
        {
          "internalType": "address",
          "name": "newOwner",
          "type": "address"
        }
      ],
      "name": "transferOwnership",
      "outputs": [],
      "stateMutability": "nonpayable",
      "type": "function"
    }
  ],
  "bytecode": "0x60c06040523480156200001157600080fd5b5060405162004a9338038062004a938339810160408190526200003491620000f6565b826001600160a01b0381166200006457604051631e4fbdf760e01b81526000600482015260240160405180910390fd5b6200006f8162000089565b506001600160a01b039182166080521660a0525062000140565b600080546001600160a01b038381166001600160a01b0319831681178455604051919092169283917f8be0079c531659141344cd1fd0a4f28419497f9722a3daafe3b4186f6b6457e09190a35050565b80516001600160a01b0381168114620000f157600080fd5b919050565b6000806000606084860312156200010c57600080fd5b6200011784620000d9565b92506200012760208501620000d9565b91506200013760408501620000d9565b90509250925092565b60805160a05161491f6200017460003960008181610cf20152612de3015260008181613ae80152613bdd015261491f6000f3fe608060405234801561001057600080fd5b506004361061011b5760003560e01c8063981adb9d116100b2578063c27a500d11610081578063e4f7f13911610066578063e4f7f13914610268578063f2fde38b1461027b578063fc9314711461028e57600080fd5b8063c27a500d14610240578063d2fcec021461025557600080fd5b8063981adb9d146101e7578063aa26176c14610207578063bac99b961461021a578063bf354d911461022d57600080fd5b8063715018a6116100ee578063715018a61461019e5780637bfc82a4146101a657806381b01bed146101b95780638da5cb5b146101cc57600080fd5b80630b791430146101205780631c55dbe0146101535780632803c874146101765780633006506d1461018b575b600080fd5b61013361012e366004613f53565b6102a1565b60405161014a9b9a99989796959493929190614021565b60405180910390f35b610166610161366004613f53565b610697565b604051901515815260200161014a565b610189610184366004614109565b61093b565b005b610189610199366004613f53565b610a2c565b610189610c4c565b6101896101b4366004613f53565b610c60565b6101336101c7366004613f53565b610d54565b6000546040516001600160a01b03909116815260200161014a565b6101fa6101f5366004613f53565b610d86565b60405161014a91906142da565b610189610215366004613f53565b610d9d565b610166610228366004613f53565b61100b565b61016661023b366004614455565b6111e0565b610248611440565b60405161014a91906145a5565b610248610263366004614607565b6119a3565b610189610276366004613f53565b612658565b610189610289366004614607565b612d63565b61018961029c366004613f53565b612dba565b600181815481106102b157600080fd5b60009182526020909120600e90910201805460018201546002830180546001600160a01b0390931694509092916102e790614622565b80601f016020809104026020016040519081016040528092919081815260200182805461031390614622565b80156103605780601f1061033557610100808354040283529160200191610360565b820191906000526020600020905b81548152906001019060200180831161034357829003601f168201915b50505050509080600301805461037590614622565b80601f01602080910402602001604051908101604052809291908181526020018280546103a190614622565b80156103ee5780601f106103c3576101008083540402835291602001916103ee565b820191906000526020600020905b8154815290600101906020018083116103d157829003601f168201915b50505050509080600401805461040390614622565b80601f016020809104026020016040519081016040528092919081815260200182805461042f90614622565b801561047c5780601f106104515761010080835404028352916020019161047c565b820191906000526020600020905b81548152906001019060200180831161045f57829003601f168201915b50505050509080600501805461049190614622565b80601f01602080910402602001604051908101604052809291908181526020018280546104bd90614622565b801561050a5780601f106104df5761010080835404028352916020019161050a565b820191906000526020600020905b8154815290600101906020018083116104ed57829003601f168201915b5050505050908060060154908060090160405180604001604052908160008201805461053590614622565b80601f016020809104026020016040519081016040528092919081815260200182805461056190614622565b80156105ae5780601f10610583576101008083540402835291602001916105ae565b820191906000526020600020905b81548152906001019060200180831161059157829003601f168201915b505050505081526020016001820180546105c790614622565b80601f01602080910402602001604051908101604052809291908181526020018280546105f390614622565b80156106405780601f1061061557610100808354040283529160200191610640565b820191906000526020600020905b81548152906001019060200180831161062357829003601f168201915b50505091909252505050600b820154600c83015460408051606081018252600d9095015460ff818116151587526101008204811615156020880152620100009091048116151591860191909152929392909116918b565b6000806106a383612ed3565b80519091506001600160a01b031633146106d75760405163118cdaa760e01b81523360048201526024015b60405180910390fd5b61010081015180514291906106ee9060019061466c565b815181106106fe576106fe61467f565b6020026020010151101561073e576040517ff2b6493500000000000000000000000000000000000000000000000000000000815260040160405180910390fd5b610180810151600190819052600084815260036020908152604091829020845181546001600160a01b0319166001600160a01b039091161781559084015192810192909255820151829190600282019061079890826146e0565b50606082015160038201906107ad90826146e0565b50608082015160048201906107c290826146e0565b5060a082015160058201906107d790826146e0565b5060c0820151600682015560e082015180516107fd916007840191602090910190613cb8565b50610100820151805161081a916008840191602090910190613d1d565b5061012082015180516009830190819061083490826146e0565b506020820151600182019061084990826146e0565b505050610140820151600b8201805460ff1916600183600281111561087057610870613fe9565b0217905550610160820151600c820155610180909101518051600d90920180546020808401516040948501511515620100000262ff0000199115156101000261ff00199715159790971661ffff1990941693909317959095179490941617905580518281526011928101929092527f5265697374726174696f6e206973206f6e0000000000000000000000000000009082015283907f29341fdda8d8688360834551d0778a603368672d46b536833acecc5286164f889060600160405180910390a250600192915050565b6001600160a01b03821661097b576040517f706a5dc300000000000000000000000000000000000000000000000000000000815260040160405180910390fd5b33600090815260046020908152604080832084845290915290205460ff166109cf576040517f60f4985300000000000000000000000000000000000000000000000000000000815260040160405180910390fd5b6001600160a01b0382166000818152600560209081526040808320858452909152808220805460ff191660011790555183929133917fd2ea75cc153ff48ab426fbd23a8cdc4db2f3ffb78aae02e35bd1881788d3aa5b9190a45050565b6000610a3782612ed3565b80519091506001600160a01b03163314610a665760405163118cdaa760e01b81523360048201526024016106ce565b6101008101518051429190610a7d9060019061466c565b81518110610a8d57610a8d61467f565b602002602001015110610ab35760405163220cb44560e01b815260040160405180910390fd5b61018081015160016020918201819052600084815260038352604090819020845181546001600160a01b0319166001600160a01b0390911617815592840151918301919091558201518291906002820190610b0e90826146e0565b5060608201516003820190610b2390826146e0565b5060808201516004820190610b3890826146e0565b5060a08201516005820190610b4d90826146e0565b5060c0820151600682015560e08201518051610b73916007840191602090910190613cb8565b506101008201518051610b90916008840191602090910190613d1d565b50610120820151805160098301908190610baa90826146e0565b5060208201516001820190610bbf90826146e0565b505050610140820151600b8201805460ff19166001836002811115610be657610be6613fe9565b0217905550610160820151600c820155610180909101518051600d909201805460208301516040909301511515620100000262ff0000199315156101000261ff00199515159590951661ffff199092169190911793909317919091169190911790555050565b610c546133f6565b610c5e6000613423565b565b610c686133f6565b6000610c7382612ed3565b905080610180015160200151610c9c5760405163220cb44560e01b815260040160405180910390fd5b80516040517f731133e90000000000000000000000000000000000000000000000000000000081526001600160a01b039182166004820152600160248201819052604482015260806064820152600060848201527f00000000000000000000000000000000000000000000000000000000000000009091169063731133e99060a401600060405180830381600087803b158015610d3857600080fd5b505af1158015610d4c573d6000803e3d6000fd5b505050505050565b6003602052600090815260409020805460018201546002830180546001600160a01b039093169391926102e790614622565b610d8e613d58565b610d9782612ed3565b92915050565b6000610da882612ed3565b80519091506001600160a01b03163314610dee576040517f075fd2b100000000000000000000000000000000000000000000000000000000815260040160405180910390fd5b42816101000151600081518110610e0757610e0761467f565b602002602001015111610e46576040517f7e77eb0100000000000000000000000000000000000000000000000000000000815260040160405180910390fd5b6101808101516001604091820181905260008481526003602090815290839020845181546001600160a01b0319166001600160a01b039091161781559084015191810191909155908201518291906002820190610ea390826146e0565b5060608201516003820190610eb890826146e0565b5060808201516004820190610ecd90826146e0565b5060a08201516005820190610ee290826146e0565b5060c0820151600682015560e08201518051610f08916007840191602090910190613cb8565b506101008201518051610f25916008840191602090910190613d1d565b50610120820151805160098301908190610f3f90826146e0565b5060208201516001820190610f5490826146e0565b505050610140820151600b8201805460ff19166001836002811115610f7b57610f7b613fe9565b0217905550610160820151600c820155610180909101518051600d909201805460208301516040938401511515620100000262ff0000199115156101000261ff00199615159690961661ffff19909316929092179490941793909316929092179091555182907fc0919dcb7e0b464ce8146ec897e4a566e6a1af62233364998f3da696e08b500b90600090a25050565b60008061101783612ed3565b80519091506001600160a01b031633146110465760405163118cdaa760e01b81523360048201526024016106ce565b61018081015160009081905283815260036020908152604091829020835181546001600160a01b0319166001600160a01b0390911617815590830151600182015590820151829190600282019061109d90826146e0565b50606082015160038201906110b290826146e0565b50608082015160048201906110c790826146e0565b5060a082015160058201906110dc90826146e0565b5060c0820151600682015560e08201518051611102916007840191602090910190613cb8565b50610100820151805161111f916008840191602090910190613d1d565b5061012082015180516009830190819061113990826146e0565b506020820151600182019061114e90826146e0565b505050610140820151600b8201805460ff1916600183600281111561117557611175613fe9565b0217905550610160820151600c820155610180909101518051600d909201805460208301516040909301511515620100000262ff0000199315156101000261ff00199515159590951661ffff1990921691909117939093179190911691909117905550600192915050565b6000806111ec83613473565b60018054808201825560009190915281517fb10e2d527612073b26eecdfd717e6a320cf44b4afac2b0732d9fcbe2b7fa0cf6600e90920291820180546001600160a01b0319166001600160a01b0390921691909117815560208301517fb10e2d527612073b26eecdfd717e6a320cf44b4afac2b0732d9fcbe2b7fa0cf78301556040830151929350839290917fb10e2d527612073b26eecdfd717e6a320cf44b4afac2b0732d9fcbe2b7fa0cf801906112a590826146e0565b50606082015160038201906112ba90826146e0565b50608082015160048201906112cf90826146e0565b5060a082015160058201906112e490826146e0565b5060c0820151600682015560e0820151805161130a916007840191602090910190613cb8565b506101008201518051611327916008840191602090910190613d1d565b5061012082015180516009830190819061134190826146e0565b506020820151600182019061135690826146e0565b505050610140820151600b8201805460ff1916600183600281111561137d5761137d613fe9565b0217905550610160820151600c820155610180909101518051600d909201805460208301516040909301511515620100000262ff0000199315156101000261ff00199515159590951661ffff199092169190911793909317919091169190911790556101408101516001925060028111156113fa576113fa613fe9565b6020820151845160405133917fe11a31e373a938d54cac686d15ee5da78148547ab5470f6f8de58752e99a9d8e9161143291906147a0565b60405180910390a450919050565b6001546060906000036114665760405163092be2bb60e41b815260040160405180910390fd5b6001805480602002602001604051908101604052809291908181526020016000905b8282101561199a576000848152602090819020604080516101a081018252600e860290920180546001600160a01b03168352600181015493830193909352600283018054929392918401916114dc90614622565b80601f016020809104026020016040519081016040528092919081815260200182805461150890614622565b80156115555780601f1061152a57610100808354040283529160200191611555565b820191906000526020600020905b81548152906001019060200180831161153857829003601f168201915b5050505050815260200160038201805461156e90614622565b80601f016020809104026020016040519081016040528092919081815260200182805461159a90614622565b80156115e75780601f106115bc576101008083540402835291602001916115e7565b820191906000526020600020905b8154815290600101906020018083116115ca57829003601f168201915b5050505050815260200160048201805461160090614622565b80601f016020809104026020016040519081016040528092919081815260200182805461162c90614622565b80156116795780601f1061164e57610100808354040283529160200191611679565b820191906000526020600020905b81548152906001019060200180831161165c57829003601f168201915b5050505050815260200160058201805461169290614622565b80601f01602080910402602001604051908101604052809291908181526020018280546116be90614622565b801561170b5780601f106116e05761010080835404028352916020019161170b565b820191906000526020600020905b8154815290600101906020018083116116ee57829003601f168201915b50505050508152602001600682015481526020016007820180548060200260200160405190810160405280929190818152602001828054801561177757602002820191906000526020600020905b81546001600160a01b03168152600190910190602001808311611759575b50505050508152602001600882018054806020026020016040519081016040528092919081815260200182805480156117cf57602002820191906000526020600020905b8154815260200190600101908083116117bb575b50505050508152602001600982016040518060400160405290816000820180546117f890614622565b80601f016020809104026020016040519081016040528092919081815260200182805461182490614622565b80156118715780601f1061184657610100808354040283529160200191611871565b820191906000526020600020905b81548152906001019060200180831161185457829003601f168201915b5050505050815260200160018201805461188a90614622565b80601f01602080910402602001604051908101604052809291908181526020018280546118b690614622565b80156119035780601f106118d857610100808354040283529160200191611903565b820191906000526020600020905b8154815290600101906020018083116118e657829003601f168201915b505050919092525050508152600b82015460209091019060ff16600281111561192e5761192e613fe9565b600281111561193f5761193f613fe9565b8152600c82015460208083019190915260408051606081018252600d9094015460ff80821615158652610100820481161515868501526201000090910416151584820152909101919091529082526001929092019101611488565b50505050905090565b606060006001805480602002602001604051908101604052809291908181526020016000905b82821015611edb576000848152602090819020604080516101a081018252600e860290920180546001600160a01b0316835260018101549383019390935260028301805492939291840191611a1d90614622565b80601f0160208091040260200160405190810160405280929190818152602001828054611a4990614622565b8015611a965780601f10611a6b57610100808354040283529160200191611a96565b820191906000526020600020905b815481529060010190602001808311611a7957829003601f168201915b50505050508152602001600382018054611aaf90614622565b80601f0160208091040260200160405190810160405280929190818152602001828054611adb90614622565b8015611b285780601f10611afd57610100808354040283529160200191611b28565b820191906000526020600020905b815481529060010190602001808311611b0b57829003601f168201915b50505050508152602001600482018054611b4190614622565b80601f0160208091040260200160405190810160405280929190818152602001828054611b6d90614622565b8015611bba5780601f10611b8f57610100808354040283529160200191611bba565b820191906000526020600020905b815481529060010190602001808311611b9d57829003601f168201915b50505050508152602001600582018054611bd390614622565b80601f0160208091040260200160405190810160405280929190818152602001828054611bff90614622565b8015611c4c5780601f10611c2157610100808354040283529160200191611c4c565b820191906000526020600020905b815481529060010190602001808311611c2f57829003601f168201915b505050505081526020016006820154815260200160078201805480602002602001604051908101604052809291908181526020018280548015611cb857602002820191906000526020600020905b81546001600160a01b03168152600190910190602001808311611c9a575b5050505050815260200160088201805480602002602001604051908101604052809291908181526020018280548015611d1057602002820191906000526020600020905b815481526020019060010190808311611cfc575b5050505050815260200160098201604051806040016040529081600082018054611d3990614622565b80601f0160208091040260200160405190810160405280929190818152602001828054611d6590614622565b8015611db25780601f10611d8757610100808354040283529160200191611db2565b820191906000526020600020905b815481529060010190602001808311611d9557829003601f168201915b50505050508152602001600182018054611dcb90614622565b80601f0160208091040260200160405190810160405280929190818152602001828054611df790614622565b8015611e445780601f10611e1957610100808354040283529160200191611e44565b820191906000526020600020905b815481529060010190602001808311611e2757829003601f168201915b505050919092525050508152600b82015460209091019060ff166002811115611e6f57611e6f613fe9565b6002811115611e8057611e80613fe9565b8152600c82015460208083019190915260408051606081018252600d9094015460ff808216151586526101008204811615158685015262010000909104161515848201529091019190915290825260019290920191016119c9565b50505050905060005b81518110156120e657836001600160a01b0316828281518110611f0957611f0961467f565b6020026020010151600001516001600160a01b0316036120d4576002828281518110611f3757611f3761467f565b6020908102919091018101518254600180820185556000948552938390208251600e9092020180546001600160a01b0319166001600160a01b03909216919091178155918101519282019290925560408201516002820190611f9990826146e0565b5060608201516003820190611fae90826146e0565b5060808201516004820190611fc390826146e0565b5060a08201516005820190611fd890826146e0565b5060c0820151600682015560e08201518051611ffe916007840191602090910190613cb8565b50610100820151805161201b916008840191602090910190613d1d565b5061012082015180516009830190819061203590826146e0565b506020820151600182019061204a90826146e0565b505050610140820151600b8201805460ff1916600183600281111561207157612071613fe9565b0217905550610160820151600c820155610180909101518051600d909201805460208301516040909301511515620100000262ff0000199315156101000261ff00199515159590951661ffff199092169190911793909317919091169190911790555b806120de816147b3565b915050611ee4565b5060025460000361210a5760405163092be2bb60e41b815260040160405180910390fd5b6002805480602002602001604051908101604052809291908181526020016000905b8282101561263e576000848152602090819020604080516101a081018252600e860290920180546001600160a01b031683526001810154938301939093526002830180549293929184019161218090614622565b80601f01602080910402602001604051908101604052809291908181526020018280546121ac90614622565b80156121f95780601f106121ce576101008083540402835291602001916121f9565b820191906000526020600020905b8154815290600101906020018083116121dc57829003601f168201915b5050505050815260200160038201805461221290614622565b80601f016020809104026020016040519081016040528092919081815260200182805461223e90614622565b801561228b5780601f106122605761010080835404028352916020019161228b565b820191906000526020600020905b81548152906001019060200180831161226e57829003601f168201915b505050505081526020016004820180546122a490614622565b80601f01602080910402602001604051908101604052809291908181526020018280546122d090614622565b801561231d5780601f106122f25761010080835404028352916020019161231d565b820191906000526020600020905b81548152906001019060200180831161230057829003601f168201915b5050505050815260200160058201805461233690614622565b80601f016020809104026020016040519081016040528092919081815260200182805461236290614622565b80156123af5780601f10612384576101008083540402835291602001916123af565b820191906000526020600020905b81548152906001019060200180831161239257829003601f168201915b50505050508152602001600682015481526020016007820180548060200260200160405190810160405280929190818152602001828054801561241b57602002820191906000526020600020905b81546001600160a01b031681526001909101906020018083116123fd575b505050505081526020016008820180548060200260200160405190810160405280929190818152602001828054801561247357602002820191906000526020600020905b81548152602001906001019080831161245f575b505050505081526020016009820160405180604001604052908160008201805461249c90614622565b80601f01602080910402602001604051908101604052809291908181526020018280546124c890614622565b80156125155780601f106124ea57610100808354040283529160200191612515565b820191906000526020600020905b8154815290600101906020018083116124f857829003601f168201915b5050505050815260200160018201805461252e90614622565b80601f016020809104026020016040519081016040528092919081815260200182805461255a90614622565b80156125a75780601f1061257c576101008083540402835291602001916125a7565b820191906000526020600020905b81548152906001019060200180831161258a57829003601f168201915b505050919092525050508152600b82015460209091019060ff1660028111156125d2576125d2613fe9565b60028111156125e3576125e3613fe9565b8152600c82015460208083019190915260408051606081018252600d9094015460ff8082161515865261010082048116151586850152620100009091041615158482015290910191909152908252600192909201910161212c565b505050509150600260006126529190613dff565b50919050565b60008181526003602052604090206001015461268a5760405163d3e4886560e01b8152600481018290526024016106ce565b6000818152600360205260409020600d81015460ff166126d6576040517fc56674a600000000000000000000000000000000000000000000000000000000815260040160405180910390fd5b33600090815260046020908152604080832085845290915290205460ff161561272d576040517f9b01b1380000000000000000000000000000000000000000000000000000000081523360048201526024016106ce565b8054336001600160a01b0390911603612772576040517f363cb99b00000000000000000000000000000000000000000000000000000000815260040160405180910390fd5b6002600b82015460ff16600281111561278d5761278d613fe9565b03612d0357604080516101a08101825282546001600160a01b0316815260018301546020820152600283018054600093612c8493928692918401916127d190614622565b80601f01602080910402602001604051908101604052809291908181526020018280546127fd90614622565b801561284a5780601f1061281f5761010080835404028352916020019161284a565b820191906000526020600020905b81548152906001019060200180831161282d57829003601f168201915b5050505050815260200160038201805461286390614622565b80601f016020809104026020016040519081016040528092919081815260200182805461288f90614622565b80156128dc5780601f106128b1576101008083540402835291602001916128dc565b820191906000526020600020905b8154815290600101906020018083116128bf57829003601f168201915b505050505081526020016004820180546128f590614622565b80601f016020809104026020016040519081016040528092919081815260200182805461292190614622565b801561296e5780601f106129435761010080835404028352916020019161296e565b820191906000526020600020905b81548152906001019060200180831161295157829003601f168201915b5050505050815260200160058201805461298790614622565b80601f01602080910402602001604051908101604052809291908181526020018280546129b390614622565b8015612a005780601f106129d557610100808354040283529160200191612a00565b820191906000526020600020905b8154815290600101906020018083116129e357829003601f168201915b505050505081526020016006820154815260200160078201805480602002602001604051908101604052809291908181526020018280548015612a6c57602002820191906000526020600020905b81546001600160a01b03168152600190910190602001808311612a4e575b5050505050815260200160088201805480602002602001604051908101604052809291908181526020018280548015612ac457602002820191906000526020600020905b815481526020019060010190808311612ab0575b5050505050815260200160098201604051806040016040529081600082018054612aed90614622565b80601f0160208091040260200160405190810160405280929190818152602001828054612b1990614622565b8015612b665780601f10612b3b57610100808354040283529160200191612b66565b820191906000526020600020905b815481529060010190602001808311612b4957829003601f168201915b50505050508152602001600182018054612b7f90614622565b80601f0160208091040260200160405190810160405280929190818152602001828054612bab90614622565b8015612bf85780601f10612bcd57610100808354040283529160200191612bf8565b820191906000526020600020905b815481529060010190602001808311612bdb57829003601f168201915b505050919092525050508152600b82015460209091019060ff166002811115612c2357612c23613fe9565b6002811115612c3457612c34613fe9565b8152600c82015460208083019190915260408051606081018252600d9094015460ff8082161515865261010082048116151593860193909352620100009004909116151583820152015233613aa5565b600783018054600181810183556000928352602080842090920180546001600160a01b03191633908117909155808452600483526040808520898652909352828420805460ff19169092179091559051929350839286927fb7f299e98a5f1a10cac6f9de415eb1bcaa2a60a33cc22c24d2e334c8870ad26b91a4505050565b6001600b82015460ff166002811115612d1e57612d1e613fe9565b03612d5f576007810180546001810182556000918252602080832090910180546001600160a01b031916339081179091558252600481526040822091849052525b5050565b612d6b6133f6565b6001600160a01b038116612dae576040517f1e4fbdf7000000000000000000000000000000000000000000000000000000008152600060048201526024016106ce565b612db781613423565b50565b612dc26133f6565b6000612dcd82612ed3565b60e081015190915060005b8151811015612ecd577f00000000000000000000000000000000000000000000000000000000000000006001600160a01b031663731133e9838381518110612e2257612e2261467f565b60209081029190910101516040517fffffffff0000000000000000000000000000000000000000000000000000000060e084901b1681526001600160a01b0390911660048201526002602482015260016044820152608060648201526000608482015260a401600060405180830381600087803b158015612ea257600080fd5b505af1158015612eb6573d6000803e3d6000fd5b505050508080612ec5906147b3565b915050612dd8565b50505050565b612edb613d58565b600082815260036020908152604080832081516101a08101835281546001600160a01b031681526001820154938101939093526002810180549192840191612f2290614622565b80601f0160208091040260200160405190810160405280929190818152602001828054612f4e90614622565b8015612f9b5780601f10612f7057610100808354040283529160200191612f9b565b820191906000526020600020905b815481529060010190602001808311612f7e57829003601f168201915b50505050508152602001600382018054612fb490614622565b80601f0160208091040260200160405190810160405280929190818152602001828054612fe090614622565b801561302d5780601f106130025761010080835404028352916020019161302d565b820191906000526020600020905b81548152906001019060200180831161301057829003601f168201915b5050505050815260200160048201805461304690614622565b80601f016020809104026020016040519081016040528092919081815260200182805461307290614622565b80156130bf5780601f10613094576101008083540402835291602001916130bf565b820191906000526020600020905b8154815290600101906020018083116130a257829003601f168201915b505050505081526020016005820180546130d890614622565b80601f016020809104026020016040519081016040528092919081815260200182805461310490614622565b80156131515780601f1061312657610100808354040283529160200191613151565b820191906000526020600020905b81548152906001019060200180831161313457829003601f168201915b5050505050815260200160068201548152602001600782018054806020026020016040519081016040528092919081815260200182805480156131bd57602002820191906000526020600020905b81546001600160a01b0316815260019091019060200180831161319f575b505050505081526020016008820180548060200260200160405190810160405280929190818152602001828054801561321557602002820191906000526020600020905b815481526020019060010190808311613201575b505050505081526020016009820160405180604001604052908160008201805461323e90614622565b80601f016020809104026020016040519081016040528092919081815260200182805461326a90614622565b80156132b75780601f1061328c576101008083540402835291602001916132b7565b820191906000526020600020905b81548152906001019060200180831161329a57829003601f168201915b505050505081526020016001820180546132d090614622565b80601f01602080910402602001604051908101604052809291908181526020018280546132fc90614622565b80156133495780601f1061331e57610100808354040283529160200191613349565b820191906000526020600020905b81548152906001019060200180831161332c57829003601f168201915b505050919092525050508152600b82015460209091019060ff16600281111561337457613374613fe9565b600281111561338557613385613fe9565b8152600c82015460208083019190915260408051606081018252600d9094015460ff8082161515865261010082048116151586850152620100009091041615158482015290910191909152810151909150610d975760405163d3e4886560e01b8152600481018490526024016106ce565b6000546001600160a01b03163314610c5e5760405163118cdaa760e01b81523360048201526024016106ce565b600080546001600160a01b038381166001600160a01b0319831681178455604051919092169283917f8be0079c531659141344cd1fd0a4f28419497f9722a3daafe3b4186f6b6457e09190a35050565b61347b613d58565b60008260405160200161348e91906147cc565b60408051601f19818403018152918152815160209283012060008181526003938490529190912080546001600160a01b03191633178155600181018290558551919350918201906134df90826146e0565b50602084015160028201906134f490826146e0565b506080840151600582019061350990826146e0565b506040840151600482019061351e90826146e0565b50836060015160000361354657600b8101805460ff191660011790556000600682015561356a565b60608401511561356a57600b8101805460ff19166002179055606084015160068201555b60a08401518051613585916008840191602090910190613d1d565b5060c0840151600982019061359a90826146e0565b5060e0840151600a8201906135af90826146e0565b5042600c820155604080516101a08101825282546001600160a01b03168152600183015460208201526002830180549192849290840191906135f090614622565b80601f016020809104026020016040519081016040528092919081815260200182805461361c90614622565b80156136695780601f1061363e57610100808354040283529160200191613669565b820191906000526020600020905b81548152906001019060200180831161364c57829003601f168201915b5050505050815260200160038201805461368290614622565b80601f01602080910402602001604051908101604052809291908181526020018280546136ae90614622565b80156136fb5780601f106136d0576101008083540402835291602001916136fb565b820191906000526020600020905b8154815290600101906020018083116136de57829003601f168201915b5050505050815260200160048201805461371490614622565b80601f016020809104026020016040519081016040528092919081815260200182805461374090614622565b801561378d5780601f106137625761010080835404028352916020019161378d565b820191906000526020600020905b81548152906001019060200180831161377057829003601f168201915b505050505081526020016005820180546137a690614622565b80601f01602080910402602001604051908101604052809291908181526020018280546137d290614622565b801561381f5780601f106137f45761010080835404028352916020019161381f565b820191906000526020600020905b81548152906001019060200180831161380257829003601f168201915b50505050508152602001600682015481526020016007820180548060200260200160405190810160405280929190818152602001828054801561388b57602002820191906000526020600020905b81546001600160a01b0316815260019091019060200180831161386d575b50505050508152602001600882018054806020026020016040519081016040528092919081815260200182805480156138e357602002820191906000526020600020905b8154815260200190600101908083116138cf575b505050505081526020016009820160405180604001604052908160008201805461390c90614622565b80601f016020809104026020016040519081016040528092919081815260200182805461393890614622565b80156139855780601f1061395a57610100808354040283529160200191613985565b820191906000526020600020905b81548152906001019060200180831161396857829003601f168201915b5050505050815260200160018201805461399e90614622565b80601f01602080910402602001604051908101604052809291908181526020018280546139ca90614622565b8015613a175780601f106139ec57610100808354040283529160200191613a17565b820191906000526020600020905b8154815290600101906020018083116139fa57829003601f168201915b505050919092525050508152600b82015460209091019060ff166002811115613a4257613a42613fe9565b6002811115613a5357613a53613fe9565b8152600c82015460208083019190915260408051606081018252600d9094015460ff80821615158652610100820481161515938601939093526201000090049091161515838201520152949350505050565b6040517fdd62ed3e0000000000000000000000000000000000000000000000000000000081526001600160a01b03828116600483015230602483015260009182917f0000000000000000000000000000000000000000000000000000000000000000169063dd62ed3e90604401602060405180830381865afa158015613b2f573d6000803e3d6000fd5b505050506040513d601f19601f82011682018060405250810190613b5391906148ae565b60c085015190915080821015613b98576040517faf1cf8f3000000000000000000000000000000000000000000000000000000008152600481018390526024016106ce565b6040517f23b872dd0000000000000000000000000000000000000000000000000000000081526001600160a01b038581166004830152306024830152604482018390527f000000000000000000000000000000000000000000000000000000000000000016906323b872dd906064016020604051808303816000875af1158015613c26573d6000803e3d6000fd5b505050506040513d601f19601f82011682018060405250810190613c4a91906148c7565b613cb0576040517f08c379a000000000000000000000000000000000000000000000000000000000815260206004820152600e60248201527f5061796d656e74204661696c656400000000000000000000000000000000000060448201526064016106ce565b949350505050565b828054828255906000526020600020908101928215613d0d579160200282015b82811115613d0d57825182546001600160a01b0319166001600160a01b03909116178255602090920191600190910190613cd8565b50613d19929150613e20565b5090565b828054828255906000526020600020908101928215613d0d579160200282015b82811115613d0d578251825591602001919060010190613d3d565b604051806101a0016040528060006001600160a01b031681526020016000801916815260200160608152602001606081526020016060815260200160608152602001600081526020016060815260200160608152602001613dcc604051806040016040528060608152602001606081525090565b81526020016000815260006020808301829052604080516060810182528381529182018390528181019290925291015290565b50805460008255600e0290600052602060002090810190612db79190613e35565b5b80821115613d195760008155600101613e21565b80821115613d195780546001600160a01b0319168155600060018201819055613e616002830182613efb565b613e6f600383016000613efb565b613e7d600483016000613efb565b613e8b600583016000613efb565b6006820160009055600782016000613ea39190613f35565b613eb1600883016000613f35565b600982016000613ec18282613efb565b613ecf600183016000613efb565b505050600b8101805460ff191690556000600c820155600d8101805462ffffff19169055600e01613e35565b508054613f0790614622565b6000825580601f10613f17575050565b601f016020900490600052602060002090810190612db79190613e20565b5080546000825590600052602060002090810190612db79190613e20565b600060208284031215613f6557600080fd5b5035919050565b6000815180845260005b81811015613f9257602081850181015186830182015201613f76565b506000602082860101526020601f19601f83011685010191505092915050565b6000815160408452613fc76040850182613f6c565b905060208301518482036020860152613fe08282613f6c565b95945050505050565b634e487b7160e01b600052602160045260246000fd5b6003811061401d57634e487b7160e01b600052602160045260246000fd5b9052565b60006101a06001600160a01b038e1683528c602084015280604084015261404a8184018d613f6c565b9050828103606084015261405e818c613f6c565b90508281036080840152614072818b613f6c565b905082810360a0840152614086818a613f6c565b90508760c084015282810360e08401526140a08188613fb2565b9150506140b1610100830186613fff565b61012082018490528251151561014083015260208301511515610160830152604083015115156101808301529c9b505050505050505050505050565b80356001600160a01b038116811461410457600080fd5b919050565b6000806040838503121561411c57600080fd5b614125836140ed565b946020939093013593505050565b600081518084526020808501945080840160005b8381101561416c5781516001600160a01b031687529582019590820190600101614147565b509495945050505050565b600081518084526020808501945080840160005b8381101561416c5781518752958201959082019060010161418b565b80516001600160a01b0316825260006101e06020830151602085015260408301518160408601526141da82860182613f6c565b915050606083015184820360608601526141f48282613f6c565b9150506080830151848203608086015261420e8282613f6c565b91505060a083015184820360a08601526142288282613f6c565b91505060c083015160c085015260e083015184820360e086015261424c8282614133565b91505061010080840151858303828701526142678382614177565b9250505061012080840151858303828701526142838382613fb2565b925050506101408084015161429a82870182613fff565b50506101608381015190850152610180808401518051151582870152602081015115156101a0870152604081015115156101c08701525090949350505050565b6020815260006142ed60208301846141a7565b9392505050565b634e487b7160e01b600052604160045260246000fd5b604051610100810167ffffffffffffffff8111828210171561432e5761432e6142f4565b60405290565b604051601f8201601f1916810167ffffffffffffffff8111828210171561435d5761435d6142f4565b604052919050565b600082601f83011261437657600080fd5b813567ffffffffffffffff811115614390576143906142f4565b6143a3601f8201601f1916602001614334565b8181528460208386010111156143b857600080fd5b816020850160208301376000918101602001919091529392505050565b600082601f8301126143e657600080fd5b8135602067ffffffffffffffff821115614402576144026142f4565b8160051b614411828201614334565b928352848101820192828101908785111561442b57600080fd5b83870192505b8483101561444a57823582529183019190830190614431565b979650505050505050565b60006020828403121561446757600080fd5b813567ffffffffffffffff8082111561447f57600080fd5b90830190610100828603121561449457600080fd5b61449c61430a565b8235828111156144ab57600080fd5b6144b787828601614365565b8252506020830135828111156144cc57600080fd5b6144d887828601614365565b6020830152506040830135828111156144f057600080fd5b6144fc87828601614365565b6040830152506060830135606082015260808301358281111561451e57600080fd5b61452a87828601614365565b60808301525060a08301358281111561454257600080fd5b61454e878286016143d5565b60a08301525060c08301358281111561456657600080fd5b61457287828601614365565b60c08301525060e08301358281111561458a57600080fd5b61459687828601614365565b60e08301525095945050505050565b6000602080830181845280855180835260408601915060408160051b870101925083870160005b828110156145fa57603f198886030184526145e88583516141a7565b945092850192908501906001016145cc565b5092979650505050505050565b60006020828403121561461957600080fd5b6142ed826140ed565b600181811c9082168061463657607f821691505b60208210810361265257634e487b7160e01b600052602260045260246000fd5b634e487b7160e01b600052601160045260246000fd5b81810381811115610d9757610d97614656565b634e487b7160e01b600052603260045260246000fd5b601f8211156146db57600081815260208120601f850160051c810160208610156146bc5750805b601f850160051c820191505b81811015610d4c578281556001016146c8565b505050565b815167ffffffffffffffff8111156146fa576146fa6142f4565b61470e816147088454614622565b84614695565b602080601f831160018114614743576000841561472b5750858301515b600019600386901b1c1916600185901b178555610d4c565b600085815260208120601f198616915b8281101561477257888601518255948401946001909101908401614753565b50858210156147905787850151600019600388901b60f8161c191681555b5050505050600190811b01905550565b6020815260006142ed6020830184613f6c565b6000600182016147c5576147c5614656565b5060010190565b60208152600082516101008060208501526147eb610120850183613f6c565b91506020850151601f19808685030160408701526148098483613f6c565b935060408701519150808685030160608701526148268483613f6c565b93506060870151608087015260808701519150808685030160a087015261484d8483613f6c565b935060a08701519150808685030160c087015261486a8483614177565b935060c08701519150808685030160e08701526148878483613f6c565b935060e08701519150808685030183870152506148a48382613f6c565b9695505050505050565b6000602082840312156148c057600080fd5b5051919050565b6000602082840312156148d957600080fd5b815180151581146142ed57600080fdfea2646970667358221220ccd9ed1885a821e9c70c56fc9b4027d2874b9abfd5fa6e9d467db878c9cf658564736f6c63430008140033",
  "linkReferences": {},
  "deployedLinkReferences": {}
}